:100000000C9434000C943E000C943E000C943E0082
:100010000C943E000C943E000C943E000C943E0068
:100020000C943E000C943E000C943E000C943E0058
:100030000C943E000C943E000C943E000C943E0048
:100040000C943E000C943E000C943E000C943E0038
:100050000C943E000C943E000C943E000C943E0028
:100060000C943E000C943E0011241FBECFEFD8E04C
:10007000DEBFCDBF0E9440000C946B000C940000CA
:1000800080E284B983EC8AB98CE38BB961E039B141
:1000900029B149B199B155B12295217035FB33276A
:1000A00030F93627232B43FB882780F9822392FBE4
:1000B000992790F99627892B8295880F807E852B2A
:1000C00085B92FEF83ED90E3215080409040E1F718
:0A00D00000C00000DCCFF894FFCF61
:00000001FF
