:100000000C9434000C943E000C943E000C943E0082
:100010000C943E000C943E000C943E000C943E0068
:100020000C943E000C943E000C943E000C943E0058
:100030000C943E000C943E000C943E000C943E0048
:100040000C943E000C943E000C943E000C943E0038
:100050000C943E000C943E000C943E000C943E0028
:100060000C943E000C943E0011241FBECFEFD8E04C
:10007000DEBFCDBF0E947C000C9481000C94000078
:1000800019B1212F312F612F712FF4E02F2342E07E
:1000900018D0E8E03E2353E018D0D0E16D2304E00F
:1000A00018D0C0E27C2315E018D0822FB1E08B2756
:1000B000A1E07A27762B7323782BB5E012D075B99F
:1000C000089526954A95E9F7089536955A95E9F7E2
:1000D000089566950A95E9F7089576951A95E9F7D2
:1000E0000895770FBA95E9F7089500E204B913EC83
:1000F0001AB91FEF1BB908950E9475000E944000B5
:06010000FBCFF894FFCFD5
:00000001FF
